:0400000080316C28B7
:10000800803120007F08F900911891100B1D682895
:100018008531582580318531A82580312000410857
:10002800400403191B280130C0020030C13B3F08BF
:100038003E04031923280130BE020030BF3B4308A9
:10004800420403192C280130C2020030C33B622845
:100058004230C2002730C3003708360403193C2851
:100068000130B6020030B73B3708360403197A135B
:100078003508340403194A280130B4020030B53B6E
:1000880035083404031D4A287B11C7013D083C0488
:10009800031958280130BC020030BD3B3D083C0420
:1000A800031D5828FB11CD013908380403196128AC
:1000B8000130B8020030B93B62287B120B198B1E45
:1000C800672884315A240B1179082000FF000900A1
:1000D80088018131182900342C3401342C3401343E
:1000E8002C3401342C3401342C340134B43400342D
:1000F800B4340034B4340034B4340034B434003488
:10010800033405340734093401340D340F34113401
:0401180013340B345D
:10020000002981318207032987311E2F8631FD2E77
:100210008631DC2E8631BB2E86319A2E8631792EA0
:100220008631582E8631372E8631162E8531F52DA2
:100230002030FA01FB01FC01FD0184000030850043
:100240002F3087313F278131A03084000030850076
:100250002E3087313F2781315530DC002000302996
:100260000E228131262281318B171E302000B600EC
:10027000B7017A174A1C6B294A104323813135088C
:100280001624813103184629C4114729C4152100B9
:1002900030081624813103184F2944115029441580
:1002A00021002B081624813103185829441259299A
:1002B0004416210026081624813103186129C41030
:1002C0006229C414210021081624813103186A29E7
:1002D00044106B2944146E2181313A2944080319D2
:1002E000F6291E30B600B7017A1B7829FA147A175E
:1002F0004418C41C80297A12FA12FB107B10922930
:10030000441C8729FA1A8929FA167B148929FA12BA
:100310007B10C41C90297A1A92297A16FB14922910
:100320007A12FB10FA180800441DB6297A18B7296A
:1003300008307A147B15B4000730B5000330C70AC3
:100340004702031CAE29C7017B11AE290C30C50042
:100350001430AC290630C500C600B7294708013A59
:100360000319A629033A0319AA29B7297A10C41D2B
:10037000DF29FA19E029B030FA15FB15BC0004306A
:10038000BD00CD0A4D02031CD429CD01FB11D42997
:100390000E30CB001430D2290A30CB00D2290630DF
:1003A000CB000430CC00E0294D08013A0319C829DC
:1003B000033A0319CC29013A0319CF29E029FA118C
:1003C000441EF4297A19080010307A15B8000E304E
:1003D000B90000307B1E0130CF00CF0E7B084F06E6
:1003E000EF394F06FB0008007A1108000030FA10C0
:1003F0007A11FA117A107A12FA12FA1A0130CF0031
:10040000CF0D7B084F06FD394F06FB007B0C0139F1
:10041000D0007B06FE395006FB000800F0302100BA
:10042000990023008C018D0120008C018D018E012B
:10043000900121008C018D018E0190018830950082
:100440007F3020009C00210091140800043020001F
:10045000D300530809070907BA3ED200023E8600BE
:100460000F3087018105413181015208023E86002B
:10047000F030870181044131473081040530CF00DD
:10048000530837238131A13E8600FC308701810566
:100490000530CF00530837238131A13E8600053057
:1004A00087018111CF00530837238131A33E860095
:1004B0001E308701C03F0030C13F0530CF005308D8
:1004C00037238131492481310530CF005308372348
:1004D0008131A53E8600FC30870181055335203EE1
:1004E0008600810141318101D303D31F292A4A109B
:1004F000CA1058231E088F3950389E009E170B11C2
:100500008B16080048352A3E86008701403FD900F7
:10051000413FDA000530CF00480837238131A13E42
:1005200086008701811DC32A48353B248131590843
:100530005202D4005A08533BD5002D248131D600F5
:10054000013FD700D736D60C5708803AD800550857
:10055000803A5802031DAE2A54085602053003188B
:10056000C42A2000CF00480837238131A13E8600ED
:10057000053087010115CF00480837238131A13E9E
:1005800086008701811105302000CF0048083723FD
:100590008131A13E860005308701011D022BCF006D
:1005A000480837238131A23E8600870101080039BF
:1005B0000138810034248131D200013FD300483515
:1005C000203E8600403FD400413FD50059085402E8
:1005D000D6005A08553BD700803AD8005308803AD5
:1005E0005802031DF52A5208560205300318022B43
:1005F0002000CF00480837238131A13E8600053016
:10060000870101112000CF00480837238131A23E25
:10061000860087010108FF39D200D2030108520683
:100620000039520681000108FF39031D080005301A
:10063000CF004808372381314924813148353B2494
:1006400081311C2481315208810241315308813BA0
:100650007F315A08D3005908D2001C248131870108
:100660005208810741315308813D7F310800D10094
:10067000D0014F085118D007CF35D136D108031D0E
:10068000392B500808008B12CA144A11C801C8013E
:100690005E238131003A03194F2B82228131C80A2F
:1006A0004808053A031D482B58230B118B160800E8
:1006B0001E30FD01C8012100A00008000530CF0058
:1006C000480837238131A13ED6004835203E8600B8
:1006D000870148352A3E84008501403F0002D4004E
:1006E0000131413F003BD500D51FEA2BD401D50194
:1006F000EA2B09248131031D832B560842248131C2
:10070000F7238131E62BCA1000344F248131031DB9
:10071000972B5608043E2624813126248131023E3F
:100720008600B830C03F0B30C13F4A150034560830
:100730004F24D200D20301085206FC395206810030
:1007400000342D248131D200013FD30055085302DB
:10075000031DAC2B540852025608031C852B043E83
:10076000860087010108FC39023881000134092420
:100770008131031DC72B560842248131560886005B
:100780008115F72381310108FC390238E12B34242B
:100790008131D200013FD3005502031DD12B5208F5
:1007A000540256080318E32B043E55248131031DDF
:1007B000972B5608043E2624813186000108FC3917
:1007C00001388100952B043E860087010108FC3921
:1007D00002389F2B5608552481310319792B013A91
:1007E0000319A12B033A0319B72BA02B0800483596
:1007F0002A3E8600403FD200413FD3004835203E8C
:1008000086005208C03F5308C13F5608043E860088
:1008100008005608023E86000130870181024131FE
:100820000030813B7F3116000104080003392000AD
:10083000DB0002305B020800D336D20CD336D20C78
:10084000D336D20C4835203E8600080086000108C9
:10085000FC3902388100560808004835703E840093
:1008600080308500003F080048357A3E84008030A3
:100870008500003F0800203E8600403FD200413FF7
:10088000D3000800860087010108FC390138810087
:100890000800A23E8600FF30870181040800043E64
:1008A00086008701010803390800860087010108D6
:1008B000033908004B254808843E80310A00813105
:1008C00001218431AA248431B4244808893E80312E
:1008D0000A00813101218431AA248431C024843169
:1008E000CE248431C80A4808053A031D9E2CC8014D
:1008F0002100A00B9E2C1E30A0004B2584318600C9
:100900008701403FF700413FF80048352A3E860006
:100910007708C03F7808C13F7D0886000030810518
:10092000413181054131F03081057E31C80A4808E6
:10093000053A031D7D2C452520004A142000031094
:100940005C0C0318B43ADC003F3920009501950790
:100950000B110800FF302000C90021009D1C080079
:100960002000C90BAD2C080021001C082000BB0092
:10097000BA0121001B082000BA070318BB0A0800AF
:10098000043021001C04F00020003A0821001B0262
:100990002000BA003B08703BBB00080052258431A0
:1009A000F500413FF6000F30F50EF60EF50576081E
:1009B000F039F5040F30F6057508053EF0000030FB
:1009C000763DF1003B087102031DE82C3A087002E5
:1009D0000318EF2C0530F5070318F60A0C2D00302C
:1009E0007602063003197502031C082D7508FB3EBC
:1009F000F000FF30763DF1003B02031D012D700831
:100A00003A020318082D0530F5020030F63B0C2D94
:100A10003B08F6003A08F5007D08023E86000F30DC
:100A200087018105413181017608F1007508F000E8
:100A3000F030F00EF10EF10570080F39F104F030CE
:100A4000F0057D08023E860087017008810441316F
:100A50007108810452258431F000413FF1000430D7
:100A6000F136F00C890B302D7008F2007108F3009C
:100A7000F4017D08860087017208810741317308FF
:100A8000813D41317408813D08001E30FD01C801DF
:100A90002100A00008002000480809070907BA3E05
:100AA000FD0008007D08023E86008701403F0800E7
:100AB0001430FC0A7C020318FC0102307C02031C87
:100AC0007A1F812D22008E158E1D692D22008E1613
:100AD0006B2D22008E128E1E702D22000E17722D8D
:100AE00022000E130E1F772D22000E16792D2200E4
:100AF0000E120E1E7E2D22008D17080022008D136F
:100B000008007B1C852D7A1B872D22008D13FB1C72
:100B10008B2D7A1B8D2D22000E127B197A1F952D9D
:100B20007C08200046020318972D22000E13FB19A3
:100B30007A1F9F2D7C0820004C020318A12D220053
:100B40008E127B1EA52D7A1B080022008E11080034
:100B500020001430CE0A4E020318CE01FB1DB72D23
:100B60004E084B02031CB72D22008E14B92D220013
:100B70008E107B198C1BC62D0C1BC62D20004E0819
:100B80004502031CC62D22000E14C82D22000E1093
:100B90007B1CD82D0C13200041084004031DD82DC8
:100BA0002200E8308C172000BE000430BF00DA2D90
:100BB00022008C13FB1CEB2D22008C1320003F081D
:100BC0003E04031DEB2D2200E8300C172000C0006E
:100BD0000430C100ED2D22000C137B1EF22D2200EB
:100BE0000E15080022000E11080022000D10210031
:100BF00031309D000D308600013087008D3084003B
:100C00000030850020000530C900C90B052E2100E9
:100C1000293080149D0020000530C900C90B0E2E1C
:100C200021009D14000081108010080022008D1109
:100C3000210025309D000D308600013087008D3069
:100C400084000030850020000530C900C90B262E25
:100C50002100313000149D0020000530C900C90B6F
:100C60002F2E21009D14000001100010080022000A
:100C70000D1221002D309D000D30860001308700BF
:100C80008D3084000030850020000530C900C90B7C
:100C9000472E2100253080159D0020000530C90019
:100CA000C90B502E21009D140000811180110800F5
:100CB00022000D11210021309D000D3086000130F1
:100CC00087008D3084000030850020000530C90089
:100CD000C90B682E21002D3000169D002000053024
:100CE000C900C90B712E21009D14000001120012D1
:100CF000080022008D10210029309D000D30860053
:100D0000013087008D3084000030850020000530E0
:100D1000C900C90B892E2100213000159D0020003B
:100D20000530C900C90B922E21009D14000001114D
:100D30000011080022000D14210031309D000D30FB
:100D40008600013087008D3084000030850020004F
:100D50000530C900C90BAA2E2100293080149D003E
:100D600020000530C900C90BB32E21009D140000DE
:100D700081148010080022008D15210025309D006F
:100D80000D308600013087008D30840000308500F2
:100D900020000530C900C90BCB2E210031300014D2
:100DA0009D0020000530C900C90BD42E21009D14E0
:100DB000000001140010080022000D1621002D3043
:100DC0009D000D308600013087008D30840000309A
:100DD000850020000530C900C90BEC2E210025300C
:100DE00080159D0020000530C900C90BF52E21009B
:100DF0009D14000081158011080022000D152100AE
:100E000021309D000D308600013087008D30840038
:100E10000030850020000530C900C90B0D2F2100CE
:100E20002D3000169D0020000530C900C90B162F7B
:100E300021009D14000001160012080022008D14EC
:100E4000210029309D000D308600013087008D3053
:100E500084000030850020000530C900C90B2E2F0A
:100E60002100213000159D0020000530C900C90B6C
:100E7000372F21009D1400000115001108006400A7
:0A0E800080010131890B402F00347E
:020000040001F9
:04000E000CC8FFDB40
:00000001FF
